{"abi":[{"type":"constructor","inputs":[],"stateMutability":"nonpayable"},{"type":"function","name":"bitcoinAddressCounter","inputs":[],"outputs":[{"name":"","type":"uint256","internalType":"uint256"}],"stateMutability":"view"},{"type":"function","name":"bitcoinAddressOwners","inputs":[{"name":"","type":"bytes25","internalType":"bytes25"}],"outputs":[{"name":"","type":"address","internalType":"address"}],"stateMutability":"view"},{"type":"function","name":"bitcoinAddresses","inputs":[{"name":"","type":"uint256","internalType":"uint256"}],"outputs":[{"name":"","type":"bytes25","internalType":"bytes25"}],"stateMutability":"view"},{"type":"function","name":"cancelQuote","inputs":[{"name":"_bitcoinAddress","type":"bytes25","internalType":"bytes25"},{"name":"_requestNumber","type":"uint256","internalType":"uint256"},{"name":"_quoteNumber","type":"uint256","internalType":"uint256"}],"outputs":[],"stateMutability":"nonpayable"},{"type":"function","name":"cancelRequest","inputs":[{"name":"_bitcoinAddress","type":"bytes25","internalType":"bytes25"},{"name":"_requestNumber","type":"uint256","internalType":"uint256"}],"outputs":[],"stateMutability":"nonpayable"},{"type":"function","name":"escrowCounter","inputs":[],"outputs":[{"name":"","type":"uint256","internalType":"uint256"}],"stateMutability":"view"},{"type":"function","name":"escrowExpiryTimeDelta","inputs":[],"outputs":[{"name":"","type":"uint256","internalType":"uint256"}],"stateMutability":"view"},{"type":"function","name":"fulfillRequest","inputs":[{"name":"_escrowNumber","type":"uint256","internalType":"uint256"}],"outputs":[],"stateMutability":"nonpayable"},{"type":"function","name":"getBitcoinAddress","inputs":[{"name":"_bitcoinAddressCounter","type":"uint256","internalType":"uint256"}],"outputs":[{"name":"","type":"bytes25","internalType":"bytes25"}],"stateMutability":"view"},{"type":"function","name":"getBitcoinAddressCount","inputs":[],"outputs":[{"name":"","type":"uint256","internalType":"uint256"}],"stateMutability":"view"},{"type":"function","name":"getBitcoinAddressOwner","inputs":[{"name":"_bitcoinAddress","type":"bytes25","internalType":"bytes25"}],"outputs":[{"name":"","type":"address","internalType":"address"}],"stateMutability":"view"},{"type":"function","name":"getEscrow","inputs":[{"name":"escrowNumber","type":"uint256","internalType":"uint256"}],"outputs":[{"name":"","type":"tuple","internalType":"struct RFQ.Escrow","components":[{"name":"creationTime","type":"uint256","internalType":"uint256"},{"name":"originatorBitcoinAddress","type":"bytes25","internalType":"bytes25"},{"name":"requestNumber","type":"uint256","internalType":"uint256"},{"name":"quoteNumber","type":"uint256","internalType":"uint256"},{"name":"destinationBitcoinAddress","type":"bytes25","internalType":"bytes25"},{"name":"fulfilled","type":"bool","internalType":"bool"},{"name":"canceled","type":"bool","internalType":"bool"}]}],"stateMutability":"view"},{"type":"function","name":"getEscrowCount","inputs":[],"outputs":[{"name":"","type":"uint256","internalType":"uint256"}],"stateMutability":"view"},{"type":"function","name":"getQuote","inputs":[{"name":"bitcoinAddress","type":"bytes25","internalType":"bytes25"},{"name":"requestNumber","type":"uint256","internalType":"uint256"},{"name":"quoteNumber","type":"uint256","internalType":"uint256"}],"outputs":[{"name":"","type":"tuple","internalType":"struct RFQ.Quote","components":[{"name":"offerer","type":"address","internalType":"address"},{"name":"erc20","type":"address","internalType":"contract IERC20"},{"name":"amount","type":"uint256","internalType":"uint256"},{"name":"expiry","type":"uint256","internalType":"uint256"},{"name":"canceled","type":"bool","internalType":"bool"},{"name":"escrowNumber","type":"uint256","internalType":"uint256"}]}],"stateMutability":"view"},{"type":"function","name":"getQuoteCounter","inputs":[{"name":"bitcoinAddress","type":"bytes25","internalType":"bytes25"},{"name":"requestNumber","type":"uint256","internalType":"uint256"}],"outputs":[{"name":"","type":"uint256","internalType":"uint256"}],"stateMutability":"view"},{"type":"function","name":"getRequest","inputs":[{"name":"bitcoinAddress","type":"bytes25","internalType":"bytes25"},{"name":"requestNumber","type":"uint256","internalType":"uint256"}],"outputs":[{"name":"","type":"tuple","internalType":"struct RFQ.Request","components":[{"name":"amount","type":"uint256","internalType":"uint256"},{"name":"expiry","type":"uint256","internalType":"uint256"},{"name":"canceled","type":"bool","internalType":"bool"},{"name":"quoteSelected","type":"uint256","internalType":"uint256"},{"name":"fulfilled","type":"bool","internalType":"bool"}]}],"stateMutability":"view"},{"type":"function","name":"getRequestCounter","inputs":[{"name":"bitcoinAddress","type":"bytes25","internalType":"bytes25"}],"outputs":[{"name":"","type":"uint256","internalType":"uint256"}],"stateMutability":"view"},{"type":"function","name":"lockQuote","inputs":[{"name":"_bitcoinAddress","type":"bytes25","internalType":"bytes25"},{"name":"_requestNumber","type":"uint256","internalType":"uint256"},{"name":"_quoteNumber","type":"uint256","internalType":"uint256"},{"name":"_destinationBitcoinAddress","type":"bytes25","internalType":"bytes25"}],"outputs":[],"stateMutability":"nonpayable"},{"type":"function","name":"makeRequest","inputs":[{"name":"_bitcoinAddress","type":"bytes25","internalType":"bytes25"},{"name":"_amount","type":"uint256","internalType":"uint256"},{"name":"_expiry","type":"uint256","internalType":"uint256"}],"outputs":[],"stateMutability":"nonpayable"},{"type":"function","name":"offerQuote","inputs":[{"name":"_bitcoinAddress","type":"bytes25","internalType":"bytes25"},{"name":"_requestNumber","type":"uint256","internalType":"uint256"},{"name":"_erc20Address","type":"address","internalType":"address"},{"name":"_amount","type":"uint256","internalType":"uint256"},{"name":"_expiry","type":"uint256","internalType":"uint256"}],"outputs":[],"stateMutability":"nonpayable"},{"type":"function","name":"owner","inputs":[],"outputs":[{"name":"","type":"address","internalType":"address"}],"stateMutability":"view"},{"type":"function","name":"quoteCounter","inputs":[{"name":"","type":"bytes25","internalType":"bytes25"},{"name":"","type":"uint256","internalType":"uint256"}],"outputs":[{"name":"","type":"uint256","internalType":"uint256"}],"stateMutability":"view"},{"type":"function","name":"quotes","inputs":[{"name":"","type":"bytes25","internalType":"bytes25"},{"name":"","type":"uint256","internalType":"uint256"},{"name":"","type":"uint256","internalType":"uint256"}],"outputs":[{"name":"offerer","type":"address","internalType":"address"},{"name":"erc20","type":"address","internalType":"contract IERC20"},{"name":"amount","type":"uint256","internalType":"uint256"},{"name":"expiry","type":"uint256","internalType":"uint256"},{"name":"canceled","type":"bool","internalType":"bool"},{"name":"escrowNumber","type":"uint256","internalType":"uint256"}],"stateMutability":"view"},{"type":"function","name":"requestCounter","inputs":[{"name":"","type":"bytes25","internalType":"bytes25"}],"outputs":[{"name":"","type":"uint256","internalType":"uint256"}],"stateMutability":"view"},{"type":"function","name":"requests","inputs":[{"name":"","type":"bytes25","internalType":"bytes25"},{"name":"","type":"uint256","internalType":"uint256"}],"outputs":[{"name":"amount","type":"uint256","internalType":"uint256"},{"name":"expiry","type":"uint256","internalType":"uint256"},{"name":"canceled","type":"bool","internalType":"bool"},{"name":"quoteSelected","type":"uint256","internalType":"uint256"},{"name":"fulfilled","type":"bool","internalType":"bool"}],"stateMutability":"view"},{"type":"function","name":"selectQuote","inputs":[{"name":"_bitcoinAddress","type":"bytes25","internalType":"bytes25"},{"name":"_requestNumber","type":"uint256","internalType":"uint256"},{"name":"_quoteNumber","type":"uint256","internalType":"uint256"}],"outputs":[],"stateMutability":"nonpayable"},{"type":"function","name":"setBitcoinAddressOwner","inputs":[{"name":"_bitcoinAddress","type":"bytes25","internalType":"bytes25"},{"name":"_newBitcoinAddressOwner","type":"address","internalType":"address"}],"outputs":[],"stateMutability":"nonpayable"},{"type":"function","name":"setOwner","inputs":[{"name":"_newOwner","type":"address","internalType":"address"}],"outputs":[],"stateMutability":"nonpayable"},{"type":"function","name":"sweepEscrow","inputs":[{"name":"_escrowNumber","type":"uint256","internalType":"uint256"}],"outputs":[],"stateMutability":"nonpayable"},{"type":"event","name":"BitcoinAddressOwnerChanged","inputs":[{"name":"bitcoinAddress","type":"bytes25","indexed":true,"internalType":"bytes25"},{"name":"previousOwner","type":"address","indexed":true,"internalType":"address"},{"name":"newOwner","type":"address","indexed":true,"internalType":"address"}],"anonymous":false},{"type":"event","name":"EscrowSwept","inputs":[{"name":"escrowNumber","type":"uint256","indexed":true,"internalType":"uint256"},{"name":"offerer","type":"address","indexed":true,"internalType":"address"},{"name":"originatorBitcoinAddress","type":"bytes25","indexed":true,"internalType":"bytes25"},{"name":"requestNumber","type":"uint256","indexed":false,"internalType":"uint256"},{"name":"quoteNumber","type":"uint256","indexed":false,"internalType":"uint256"}],"anonymous":false},{"type":"event","name":"NewQuote","inputs":[{"name":"offerer","type":"address","indexed":true,"internalType":"address"},{"name":"bitcoinAddress","type":"bytes25","indexed":true,"internalType":"bytes25"},{"name":"requestNumber","type":"uint256","indexed":true,"internalType":"uint256"},{"name":"offerNumber","type":"uint256","indexed":false,"internalType":"uint256"},{"name":"erc20Address","type":"address","indexed":false,"internalType":"address"},{"name":"amount","type":"uint256","indexed":false,"internalType":"uint256"},{"name":"expiry","type":"uint256","indexed":false,"internalType":"uint256"}],"anonymous":false},{"type":"event","name":"NewRequest","inputs":[{"name":"bitcoinAddress","type":"bytes25","indexed":true,"internalType":"bytes25"},{"name":"amount","type":"uint256","indexed":false,"internalType":"uint256"},{"name":"expiry","type":"uint256","indexed":false,"internalType":"uint256"},{"name":"requestNumber","type":"uint256","indexed":false,"internalType":"uint256"}],"anonymous":false},{"type":"event","name":"OwnerChanged","inputs":[{"name":"previousOwner","type":"address","indexed":true,"internalType":"address"},{"name":"newOwner","type":"address","indexed":true,"internalType":"address"}],"anonymous":false},{"type":"event","name":"QuoteCanceled","inputs":[{"name":"offerer","type":"address","indexed":true,"internalType":"address"},{"name":"bitcoinAddress","type":"bytes25","indexed":true,"internalType":"bytes25"},{"name":"requestNumber","type":"uint256","indexed":true,"internalType":"uint256"},{"name":"quoteNumber","type":"uint256","indexed":false,"internalType":"uint256"}],"anonymous":false},{"type":"event","name":"QuoteLocked","inputs":[{"name":"escrowNumber","type":"uint256","indexed":true,"internalType":"uint256"},{"name":"bitcoinAddress","type":"bytes25","indexed":true,"internalType":"bytes25"},{"name":"requestNumber","type":"uint256","indexed":false,"internalType":"uint256"},{"name":"quoteNumber","type":"uint256","indexed":false,"internalType":"uint256"},{"name":"destinationBitcoinAddress","type":"bytes25","indexed":false,"internalType":"bytes25"}],"anonymous":false},{"type":"event","name":"QuoteOffered","inputs":[{"name":"offerer","type":"address","indexed":true,"internalType":"address"},{"name":"bitcoinAddress","type":"bytes25","indexed":true,"internalType":"bytes25"},{"name":"requestNumber","type":"uint256","indexed":true,"internalType":"uint256"},{"name":"quoteNumber","type":"uint256","indexed":false,"internalType":"uint256"},{"name":"erc20Address","type":"address","indexed":false,"internalType":"address"},{"name":"amount","type":"uint256","indexed":false,"internalType":"uint256"},{"name":"expiry","type":"uint256","indexed":false,"internalType":"uint256"}],"anonymous":false},{"type":"event","name":"QuoteSelected","inputs":[{"name":"bitcoinAddress","type":"bytes25","indexed":true,"internalType":"bytes25"},{"name":"requestNumber","type":"uint256","indexed":true,"internalType":"uint256"},{"name":"quoteNumber","type":"uint256","indexed":true,"internalType":"uint256"}],"anonymous":false},{"type":"event","name":"RequestCanceled","inputs":[{"name":"bitcoinAddress","type":"bytes25","indexed":true,"internalType":"bytes25"},{"name":"requestNumber","type":"uint256","indexed":true,"internalType":"uint256"}],"anonymous":false},{"type":"event","name":"RequestFulfilled","inputs":[{"name":"escrowNumber","type":"uint256","indexed":true,"internalType":"uint256"},{"name":"originatorBitcoinAddress","type":"bytes25","indexed":true,"internalType":"bytes25"},{"name":"destinationBitcoinAddress","type":"address","indexed":true,"internalType":"address"},{"name":"requestNumber","type":"uint256","indexed":false,"internalType":"uint256"},{"name":"quoteNumber","type":"uint256","indexed":false,"internalType":"uint256"},{"name":"erc20Address","type":"address","indexed":false,"internalType":"address"},{"name":"amount","type":"uint256","indexed":false,"internalType":"uint256"}],"anonymous":false},{"type":"error","name":"BadEscrow","inputs":[{"name":"escrowNumber","type":"uint256","internalType":"uint256"},{"name":"reason","type":"uint8","internalType":"enum RFQ.BadEscrowReason"}]},{"type":"error","name":"BadQuote","inputs":[{"name":"offerer","type":"address","internalType":"address"},{"name":"bitcoinAddress","type":"bytes25","internalType":"bytes25"},{"name":"requestNumber","type":"uint256","internalType":"uint256"},{"name":"quoteNumber","type":"uint256","internalType":"uint256"},{"name":"reason","type":"uint8","internalType":"enum RFQ.BadQuoteReason"}]},{"type":"error","name":"BadRequest","inputs":[{"name":"bitcoinAddressOwner","type":"address","internalType":"address"},{"name":"bitcoinAddress","type":"bytes25","internalType":"bytes25"},{"name":"requestNumber","type":"uint256","internalType":"uint256"},{"name":"reason","type":"uint8","internalType":"enum RFQ.BadRequestReason"}]},{"type":"error","name":"EscrowExpired","inputs":[{"name":"escrowNumber","type":"uint256","internalType":"uint256"},{"name":"expiry","type":"uint256","internalType":"uint256"},{"name":"blockTimestamp","type":"uint256","internalType":"uint256"}]},{"type":"error","name":"EscrowHasNotExpired","inputs":[{"name":"escrowNumber","type":"uint256","internalType":"uint256"},{"name":"expiry","type":"uint256","internalType":"uint256"},{"name":"blockTimestamp","type":"uint256","internalType":"uint256"}]},{"type":"error","name":"ExpiryInThePast","inputs":[{"name":"expiry","type":"uint256","internalType":"uint256"},{"name":"currentBlockTimestamp","type":"uint256","internalType":"uint256"}]},{"type":"error","name":"FailedToTransferFundsForLockingQuote","inputs":[{"name":"offerer","type":"address","internalType":"address"},{"name":"bitcoinAddress","type":"bytes25","internalType":"bytes25"},{"name":"requestNumber","type":"uint256","internalType":"uint256"},{"name":"quoteNumber","type":"uint256","internalType":"uint256"},{"name":"erc20Address","type":"address","internalType":"address"},{"name":"amount","type":"uint256","internalType":"uint256"}]},{"type":"error","name":"FailedToTransferOutOfEscrow","inputs":[{"name":"destination","type":"address","internalType":"address"},{"name":"escrowNumber","type":"uint256","internalType":"uint256"},{"name":"erc20Address","type":"address","internalType":"address"},{"name":"amount","type":"uint256","internalType":"uint256"}]},{"type":"error","name":"InsufficientBalanceForQuote","inputs":[{"name":"offerer","type":"address","internalType":"address"},{"name":"bitcoinAddress","type":"bytes25","internalType":"bytes25"},{"name":"requestNumber","type":"uint256","internalType":"uint256"},{"name":"erc20Address","type":"address","internalType":"address"},{"name":"amount","type":"uint256","internalType":"uint256"},{"name":"erc20balance","type":"uint256","internalType":"uint256"}]},{"type":"error","name":"NotOwner","inputs":[]},{"type":"error","name":"QuoteAmountMustBeNonZero","inputs":[{"name":"offerer","type":"address","internalType":"address"},{"name":"bitcoinAddress","type":"bytes25","internalType":"bytes25"},{"name":"requestNumber","type":"uint256","internalType":"uint256"},{"name":"expiry","type":"uint256","internalType":"uint256"}]},{"type":"error","name":"RequestAmountMustBeNonZero","inputs":[{"name":"bitcoinAddress","type":"bytes25","internalType":"bytes25"},{"name":"expiry","type":"uint256","internalType":"uint256"}]},{"type":"error","name":"RequestHasNotSelectedQuote","inputs":[{"name":"bitcoinAddress","type":"bytes25","internalType":"bytes25"},{"name":"requestNumber","type":"uint256","internalType":"uint256"},{"name":"quoteSelected","type":"uint256","internalType":"uint256"},{"name":"badQuoteNumber","type":"uint256","internalType":"uint256"}]},{"type":"error","name":"SenderDoesNotControlBitcoinAddress","inputs":[{"name":"sender","type":"address","internalType":"address"},{"name":"bitcoinAddressOwner","type":"address","internalType":"address"},{"name":"bitcoinAddress","type":"bytes25","internalType":"bytes25"}]},{"type":"error","name":"SenderDoesNotOwnQuote","inputs":[{"name":"sender","type":"address","internalType":"address"},{"name":"offerer","type":"address","internalType":"address"},{"name":"bitcoinAddress","type":"bytes25","internalType":"bytes25"},{"name":"requestNumber","type":"uint256","internalType":"uint256"},{"name":"quoteNumber","type":"uint256","internalType":"uint256"}]}],"bytecode":{"object":"0x6080604052348015600f57600080fd5b50600780546001600160a01b03191633179055611fae806100316000396000f3fe608060405234801561001057600080fd5b50600436106101cf5760003560e01c80637d19e59611610104578063d836f995116100a2578063f47b053311610071578063f47b0533146107f6578063f9cf7b9714610809578063fa163eca1461081c578063fbcd08e31461082657600080fd5b8063d836f99514610786578063e1849bb614610799578063e191edf7146107d0578063ea682eee146107e357600080fd5b8063ac7a3db6116100de578063ac7a3db614610692578063c7ceafea146106b5578063c83a898f146106be578063d4559a77146106e757600080fd5b80637d19e596146105325780638da5cb5b1461066c5780639a91eb0d1461067f57600080fd5b806342835a111161017157806364e09b9b1161014b57806364e09b9b146104865780636c8f91b0146104a65780637057aff6146104d05780637902c133146104d957600080fd5b806342835a1114610435578063516d37b214610448578063645626741461045b57600080fd5b806316b15135116101ad57806316b151351461027557806327542851146102875780632dc9dd4b146103a45780633047351a146103b757600080fd5b806303074250146101d4578063106f38421461021557806313af403514610260575b600080fd5b6101f76101e2366004611c33565b60016020526000908152604090205460381b81565b60405166ffffffffffffff1990911681526020015b60405180910390f35b610248610223366004611c69565b66ffffffffffffff19166000908152600260205260409020546001600160a01b031690565b6040516001600160a01b03909116815260200161020c565b61027361026e366004611ca2565b61082e565b005b6003545b60405190815260200161020c565b61034d610295366004611cbd565b6040805160c081018252600080825260208201819052918101829052606081018290526080810182905260a08101919091525066ffffffffffffff19929092166000908152600660209081526040808320938352928152828220938252928352819020815160c08101835281546001600160a01b0390811682526001830154169381019390935260028101549183019190915260038101546060830152600481015460ff16151560808301526005015460a082015290565b60405161020c919081516001600160a01b03908116825260208084015190911690820152604080830151908201526060808301519082015260808083015115159082015260a0918201519181019190915260c00190565b6102736103b2366004611cbd565b61087b565b6104046103c5366004611cf0565b6009602090815260009283526040808420909152908252902080546001820154600283015460038401546004909401549293919260ff91821692911685565b60405161020c9594939291909485526020850193909352901515604084015260608301521515608082015260a00190565b610273610443366004611d1a565b610ad7565b610273610456366004611d68565b610eaf565b610279610469366004611cf0565b600560209081526000928352604080842090915290825290205481565b610279610494366004611c69565b60086020526000908152604090205481565b6102796104b4366004611c69565b66ffffffffffffff191660009081526008602052604090205490565b61027960005481565b6104ec6104e7366004611cf0565b611175565b60405161020c9190600060a08201905082518252602083015160208301526040830151151560408301526060830151606083015260808301511515608083015292915050565b6105fe610540366004611c33565b6040805160e081018252600080825260208201819052918101829052606081018290526080810182905260a0810182905260c081019190915250600090815260046020818152604092839020835160e08101855281548152600182015466ffffffffffffff19603891821b811694830194909452600283015495820195909552600382015460608201529201549283901b16608082015260ff600160c81b83048116151560a0830152600160d01b909204909116151560c082015290565b60405161020c9190600060e0820190508251825266ffffffffffffff196020840151166020830152604083015160408301526060830151606083015266ffffffffffffff19608084015116608083015260a0830151151560a083015260c0830151151560c083015292915050565b600754610248906001600160a01b031681565b61027361068d366004611c33565b61121b565b6101f76106a0366004611c33565b60009081526001602052604090205460381b90565b61027960035481565b6102486106cc366004611c69565b6002602052600090815260409020546001600160a01b031681565b61074c6106f5366004611cbd565b60066020908152600093845260408085208252928452828420905282529020805460018201546002830154600384015460048501546005909501546001600160a01b039485169594909316939192909160ff169086565b604080516001600160a01b0397881681529690951660208701529385019290925260608401521515608083015260a082015260c00161020c565b610273610794366004611cbd565b611489565b6102796107a7366004611cf0565b66ffffffffffffff19919091166000908152600560209081526040808320938352929052205490565b6102736107de366004611c33565b61150a565b6102736107f1366004611cf0565b611791565b610273610804366004611cbd565b6117f9565b610273610817366004611dae565b611869565b6102796276a70081565b600054610279565b6007546001600160a01b03163314610859576040516330cd747160e01b815260040160405180910390fd5b600780546001600160a01b0319166001600160a01b0392909216919091179055565b816000036108b457604051634f5380fd60e01b815266ffffffffffffff1984166004820152602481018290526044015b60405180910390fd5b428110156108de57604051635b15eb9f60e11b8152600481018290524260248201526044016108ab565b66ffffffffffffff1983166000908152600860205260408120549081900361096b5766ffffffffffffff198416600090815260026020908152604080832080546001600160a01b031916331790558254835260019182905282208054603888901c6001600160c81b031990911617905581549091908190610960908490611de1565b909155506109d89050565b66ffffffffffffff1984166000908152600260205260409020546001600160a01b031633146109d85766ffffffffffffff19841660009081526002602052604090819020549051637d13030d60e01b81526108ab9133916001600160a01b03909116908790600401611e02565b6040805160a08101825284815260208082018581526000838501818152600019606086019081526080860183815266ffffffffffffff198c16808552600987528885208a86528752888520975188559451600188810191909155925160028801805491151560ff1992831617905591516003880155516004909601805496151596909116959095179094559081526008909152918220805491929091610a7f908490611de1565b9091555050604080518481526020810184905290810182905266ffffffffffffff198516907f0c4f2054369a4a09613968827a7306cc4e6410ebc88f4153733d6377b51265849060600160405180910390a250505050565b42811015610b0157604051635b15eb9f60e11b8152600481018290524260248201526044016108ab565b336000839003610b4d5760405163cbabc53960e01b81526001600160a01b038216600482015266ffffffffffffff198716602482015260448101869052606481018390526084016108ab565b610b578686611935565b6040516370a0823160e01b815233600482015284906001600160a01b038216906370a0823190602401602060405180830381865afa158015610b9d573d6000803e3d6000fd5b505050506040513d601f19601f82011682018060405250810190610bc19190611e2f565b841115610c8f576040516370a0823160e01b8152336004820152829088908890889088906001600160a01b038716906370a0823190602401602060405180830381865afa158015610c16573d6000803e3d6000fd5b505050506040513d601f19601f82011682018060405250810190610c3a9190611e2f565b604051631b84355760e21b81526001600160a01b03968716600482015266ffffffffffffff199095166024860152604485019390935293166064830152608482019290925260a481019190915260c4016108ab565b6000600560008966ffffffffffffff191666ffffffffffffff1916815260200190815260200160002060008881526020019081526020016000205490506040518060c00160405280846001600160a01b03168152602001836001600160a01b03168152602001868152602001858152602001600015158152602001600019815250600660008a66ffffffffffffff191666ffffffffffffff191681526020019081526020016000206000898152602001908152602001600020600083815260200190815260200160002060008201518160000160006101000a8154816001600160a01b0302191690836001600160a01b0316021790555060208201518160010160006101000a8154816001600160a01b0302191690836001600160a01b03160217905550604082015181600201556060820151816003015560808201518160040160006101000a81548160ff02191690831515021790555060a082015181600501559050506001600560008a66ffffffffffffff191666ffffffffffffff1916815260200190815260200160002060008981526020019081526020016000206000828254610e3d9190611de1565b9091555050604080518281526001600160a01b03888116602083015291810187905260608101869052889166ffffffffffffff198b1691908616907f5957c28cd92c6d9d9eded698d8612e0ed4b1ea04da0d3e045d81a4b66b9d3a299060800160405180910390a45050505050505050565b610eba8484846119e8565b66ffffffffffffff1984166000908152600960209081526040808320868452909152902060038101548314610f29576003810154604051638a1de3c360e01b815266ffffffffffffff1987166004820152602481018690526044810191909152606481018490526084016108ab565b66ffffffffffffff198516600090815260066020908152604080832087845282528083208684529091529081902060018101548154600283015493516323b872dd60e01b81526001600160a01b039182166004820152306024820152604481019490945291929116906323b872dd906064016020604051808303816000875af1158015610fba573d6000803e3d6000fd5b505050506040513d601f19601f82011682018060405250810190610fde9190611e48565b61103f5780546001820154600283015460405163b0c2012f60e01b81526001600160a01b03938416600482015266ffffffffffffff198a166024820152604481018990526064810188905292909116608483015260a482015260c4016108ab565b600380546040805160e08101825242815266ffffffffffffff198a811660208084018281528486018d815260608087018e8152958d1660808801818152600060a08a0181815260c08b018281528d83526004808a52928d90209b518c55965160018c018054603892831c6001600160c81b0319909116179055955160028c015598519c8a019c909c555197909a018054965193511515600160d01b0260ff60d01b19941515600160c81b026001600160d01b03199098169890931c979097179590951791909116179093556005870185905583518b81529283018a9052928201949094529192909183917f6bd62addd08bed8ad55bb201f2b6437842db95ecbdf703dca2203ca2a0ec696d910160405180910390a36001600360008282546111679190611de1565b909155505050505050505050565b6111ab6040518060a001604052806000815260200160008152602001600015158152602001600081526020016000151581525090565b5066ffffffffffffff1982166000908152600960209081526040808320848452825291829020825160a08101845281548152600182015492810192909252600281015460ff9081161515938301939093526003810154606083015260040154909116151560808201525b92915050565b6007546001600160a01b03163314611246576040516330cd747160e01b815260040160405180910390fd5b61124f81611a5f565b6000818152600460205260409020805461126d906276a70090611de1565b42106112ad5780548290611285906276a70090611de1565b60405163c30aaa1960e01b8152600481019290925260248201524260448201526064016108ab565b60018181015460381b66ffffffffffffff1916600081815260066020908152604080832060028088015485529083528184206003880154855283528184209484529182905291829020549383015490830154915163a9059cbb60e01b81526001600160a01b039485166004820181905260248201939093529293919291169063a9059cbb906044016020604051808303816000875af1158015611354573d6000803e3d6000fd5b505050506040513d601f19601f820116820180604052508101906113789190611e48565b6113bf5760018201546002830154604051631a199afd60e31b81526001600160a01b03808516600483015260248201889052909216604483015260648201526084016108ab565b6004838101805460ff60c81b1916600160c81b1790556001808501805466ffffffffffffff19603891821b811660009081526009602090815260408083206002808d018054865291845293829020909801805460ff1916881790559454965460038b0154968a0154928a01548651918252918101969096526001600160a01b0391821686860152606086015292519286169490911b169187917f4ef525044e11ac829e2240e3af503f759fe5b890261a827dab0cf4e3a0177ffc916080908290030190a450505050565b6114948383836119e8565b66ffffffffffffff19831660008181526006602090815260408083208684528252808320858452825291829020600401805460ff19166001179055905183815284929133917fba3b3b13870ba67d9d693adf42766c2e845ae60905b038278d1d08564f0a403791015b60405180910390a4505050565b61151381611a5f565b6000818152600460209081526040808320600181015460381b66ffffffffffffff19168452600683528184206002820154855283528184206003820154855290925290912080546001600160a01b031633146115aa578054600183015460028401546003850154604051632f20a0c960e11b81526108ab9433946001600160a01b039091169360389190911b929091600401611e6a565b81546115ba906276a70090611de1565b4210156115fb57815483906115d3906276a70090611de1565b604051635084a21560e11b8152600481019290925260248201524260448201526064016108ab565b60048281018054600160d01b60ff60d01b19909116179055818101805460ff1990811660019081179092558185015460381b66ffffffffffffff191660009081526009602090815260408083206002808a0154855292529182902081018054909316841790925591840154845491850154925163a9059cbb60e01b81526001600160a01b03928316948101949094526024840192909252169063a9059cbb906044016020604051808303816000875af11580156116bc573d6000803e3d6000fd5b505050506040513d601f19601f820116820180604052508101906116e09190611e48565b61172a57805460018201546002830154604051631a199afd60e31b81526001600160a01b0393841660048201526024810187905292909116604483015260648201526084016108ab565b600182015481546002840154600385015460408051928352602083019190915260389390931b66ffffffffffffff1916926001600160a01b039092169186917f31368e7c1e1a4149f29836c41bbe2434bbd4fc7c2144146fce1c8699f733bedf91016114fd565b61179b8282611afe565b66ffffffffffffff1982166000818152600960209081526040808320858452909152808220600201805460ff19166001179055518392917f533f2e95020ce362a296eb7d53218e46cb8ac625f0d72f3dd441c7231e1fd13991a35050565b6118038383611afe565b61180e838383611b56565b66ffffffffffffff1983166000818152600960209081526040808320868452909152808220600301849055518392859290917f176354f0296032e7d0f50ce56518978026938f2525958633efa3d58455aa72a19190a4505050565b66ffffffffffffff1982166000908152600260205260409020546001600160a01b03163381148015906118a757506007546001600160a01b03163314155b156118cb57338184604051637d13030d60e01b81526004016108ab93929190611e02565b66ffffffffffffff19831660008181526002602052604080822080546001600160a01b0319166001600160a01b03878116918217909255915191939085169290917fc4443ba17695fdd35560bc83c626fa771cc24a03f3def6e5a81760674732a5c89190a4505050565b66ffffffffffffff1982166000908152600260209081526040808320546008909252909120546001600160a01b0390911690821061198f578083836000604051630140bc9b60e01b81526004016108ab9493929190611ece565b66ffffffffffffff19831660009081526009602090815260408083208584529091529020600481015460ff16156119e2578184846001604051630140bc9b60e01b81526004016108ab9493929190611ece565b50505050565b66ffffffffffffff19831660009081526006602090815260408083208584528252808320848452909152902080546001600160a01b03163314611a54578054604051632f20a0c960e11b81526108ab9133916001600160a01b0390911690879087908790600401611e6a565b6119e2848484611b56565b6003548110611a865780600060405163c02497bd60e01b81526004016108ab929190611f0d565b600081815260046020819052604090912090810154600160d01b900460ff1615611ac85781600160405163c02497bd60e01b81526004016108ab929190611f0d565b6004810154600160c81b900460ff1615611afa5781600260405163c02497bd60e01b81526004016108ab929190611f0d565b5050565b66ffffffffffffff1982166000908152600260205260409020546001600160a01b0316338114611b4757338184604051637d13030d60e01b81526004016108ab93929190611e02565b611b518383611935565b505050565b66ffffffffffffff19831660009081526008602052604090205482101580611ba2575066ffffffffffffff19831660009081526005602090815260408083208584529091529020548110155b15611bcc5760008383836000604051632171de3560e01b81526004016108ab959493929190611f31565b66ffffffffffffff1983166000908152600660209081526040808320858452825280832084845290915290206005810154600019146119e2578054604051632171de3560e01b81526108ab916001600160a01b031690869086908690600190600401611f31565b600060208284031215611c4557600080fd5b5035919050565b803566ffffffffffffff1981168114611c6457600080fd5b919050565b600060208284031215611c7b57600080fd5b611c8482611c4c565b9392505050565b80356001600160a01b0381168114611c6457600080fd5b600060208284031215611cb457600080fd5b611c8482611c8b565b600080600060608486031215611cd257600080fd5b611cdb84611c4c565b95602085013595506040909401359392505050565b60008060408385031215611d0357600080fd5b611d0c83611c4c565b946020939093013593505050565b600080600080600060a08688031215611d3257600080fd5b611d3b86611c4c565b945060208601359350611d5060408701611c8b565b94979396509394606081013594506080013592915050565b60008060008060808587031215611d7e57600080fd5b611d8785611c4c565b93506020850135925060408501359150611da360608601611c4c565b905092959194509250565b60008060408385031215611dc157600080fd5b611dca83611c4c565b9150611dd860208401611c8b565b90509250929050565b8082018082111561121557634e487b7160e01b600052601160045260246000fd5b6001600160a01b03938416815291909216602082015266ffffffffffffff19909116604082015260600190565b600060208284031215611e4157600080fd5b5051919050565b600060208284031215611e5a57600080fd5b81518015158114611c8457600080fd5b6001600160a01b03958616815293909416602084015266ffffffffffffff199190911660408301526060820152608081019190915260a00190565b634e487b7160e01b600052602160045260246000fd5b60028110611ecb57611ecb611ea5565b50565b6001600160a01b038516815266ffffffffffffff19841660208201526040810183905260808101611efe83611ebb565b82606083015295945050505050565b8281526040810160038310611f2457611f24611ea5565b8260208301529392505050565b6001600160a01b038616815266ffffffffffffff1985166020820152604081018490526060810183905260a08101611f6883611ebb565b826080830152969550505050505056fea264697066735822122034e8808e943e39bd5f3daa72b09c4c6879e41c0055aee2149500e2f9f9d71eae64736f6c634300081a0033","linkReferences":{}},"methodIdentifiers":{"bitcoinAddressCounter()":"7057aff6","bitcoinAddressOwners(bytes25)":"c83a898f","bitcoinAddresses(uint256)":"03074250","cancelQuote(bytes25,uint256,uint256)":"d836f995","cancelRequest(bytes25,uint256)":"ea682eee","escrowCounter()":"c7ceafea","escrowExpiryTimeDelta()":"fa163eca","fulfillRequest(uint256)":"9a91eb0d","getBitcoinAddress(uint256)":"ac7a3db6","getBitcoinAddressCount()":"fbcd08e3","getBitcoinAddressOwner(bytes25)":"106f3842","getEscrow(uint256)":"7d19e596","getEscrowCount()":"16b15135","getQuote(bytes25,uint256,uint256)":"27542851","getQuoteCounter(bytes25,uint256)":"e1849bb6","getRequest(bytes25,uint256)":"7902c133","getRequestCounter(bytes25)":"6c8f91b0","lockQuote(bytes25,uint256,uint256,bytes25)":"516d37b2","makeRequest(bytes25,uint256,uint256)":"2dc9dd4b","offerQuote(bytes25,uint256,address,uint256,uint256)":"42835a11","owner()":"8da5cb5b","quoteCounter(bytes25,uint256)":"64562674","quotes(bytes25,uint256,uint256)":"d4559a77","requestCounter(bytes25)":"64e09b9b","requests(bytes25,uint256)":"3047351a","selectQuote(bytes25,uint256,uint256)":"f47b0533","setBitcoinAddressOwner(bytes25,address)":"f9cf7b97","setOwner(address)":"13af4035","sweepEscrow(uint256)":"e191edf7"},"id":26}